{
  "contractName": "AccountSystem",
  "abi": [
    {
      "constant": false,
      "inputs": [],
      "name": "createEmployee",
      "outputs": [],
      "payable": false,
      "stateMutability": "nonpayable",
      "type": "function"
    },
    {
      "constant": false,
      "inputs": [],
      "name": "createEmployer",
      "outputs": [],
      "payable": false,
      "stateMutability": "nonpayable",
      "type": "function"
    },
    {
      "constant": true,
      "inputs": [],
      "name": "getEmployeeCount",
      "outputs": [
        {
          "name": "",
          "type": "uint256"
        }
      ],
      "payable": false,
      "stateMutability": "view",
      "type": "function"
    },
    {
      "constant": true,
      "inputs": [],
      "name": "getEmployerCount",
      "outputs": [
        {
          "name": "",
          "type": "uint256"
        }
      ],
      "payable": false,
      "stateMutability": "view",
      "type": "function"
    },
    {
      "constant": true,
      "inputs": [
        {
          "name": "owner",
          "type": "address"
        }
      ],
      "name": "getEmployeeIndex",
      "outputs": [
        {
          "name": "",
          "type": "uint256"
        }
      ],
      "payable": false,
      "stateMutability": "view",
      "type": "function"
    },
    {
      "constant": true,
      "inputs": [
        {
          "name": "index",
          "type": "uint256"
        }
      ],
      "name": "getEmployeeAddress",
      "outputs": [
        {
          "name": "",
          "type": "address"
        }
      ],
      "payable": false,
      "stateMutability": "view",
      "type": "function"
    },
    {
      "constant": true,
      "inputs": [
        {
          "name": "owner",
          "type": "address"
        }
      ],
      "name": "getEmployerIndex",
      "outputs": [
        {
          "name": "",
          "type": "uint256"
        }
      ],
      "payable": false,
      "stateMutability": "view",
      "type": "function"
    },
    {
      "constant": true,
      "inputs": [
        {
          "name": "index",
          "type": "uint256"
        }
      ],
      "name": "getEmployerAddress",
      "outputs": [
        {
          "name": "",
          "type": "address"
        }
      ],
      "payable": false,
      "stateMutability": "view",
      "type": "function"
    },
    {
      "constant": true,
      "inputs": [
        {
          "name": "index",
          "type": "uint256"
        }
      ],
      "name": "getEmployeeSendResumeCounter",
      "outputs": [
        {
          "name": "",
          "type": "uint256"
        }
      ],
      "payable": false,
      "stateMutability": "view",
      "type": "function"
    },
    {
      "constant": true,
      "inputs": [
        {
          "name": "index",
          "type": "uint256"
        }
      ],
      "name": "getEmployerGetResumeCounter",
      "outputs": [
        {
          "name": "",
          "type": "uint256"
        }
      ],
      "payable": false,
      "stateMutability": "view",
      "type": "function"
    },
    {
      "constant": true,
      "inputs": [
        {
          "name": "employee",
          "type": "uint256"
        },
        {
          "name": "index",
          "type": "uint256"
        }
      ],
      "name": "getSendResumeAt",
      "outputs": [
        {
          "name": "",
          "type": "uint256"
        }
      ],
      "payable": false,
      "stateMutability": "view",
      "type": "function"
    },
    {
      "constant": true,
      "inputs": [
        {
          "name": "employer",
          "type": "uint256"
        },
        {
          "name": "index",
          "type": "uint256"
        }
      ],
      "name": "getGetResumeAt",
      "outputs": [
        {
          "name": "",
          "type": "uint256"
        }
      ],
      "payable": false,
      "stateMutability": "view",
      "type": "function"
    },
    {
      "constant": false,
      "inputs": [
        {
          "name": "intro",
          "type": "string"
        },
        {
          "name": "employer",
          "type": "uint256"
        }
      ],
      "name": "setEmployerIntro",
      "outputs": [
        {
          "name": "",
          "type": "string"
        }
      ],
      "payable": false,
      "stateMutability": "nonpayable",
      "type": "function"
    },
    {
      "constant": true,
      "inputs": [
        {
          "name": "employer",
          "type": "uint256"
        }
      ],
      "name": "getEmployerIntro",
      "outputs": [
        {
          "name": "",
          "type": "string"
        }
      ],
      "payable": false,
      "stateMutability": "view",
      "type": "function"
    }
  ],
  "bytecode": "0x60806040526001600055600160035534801561001a57600080fd5b50610dec8061002a6000396000f3006080604052600436106100d0576000357c0100000000000000000000000000000000000000000000000000000000900463ffffffff168063126d7b92146100d55780631c8ffd111461012c57806330242b761461017757806353b2edef1461018e57806367d71929146101b95780636a6b30f7146101fa5780636e37b5a5146102e657806395bd3405146103535780639d0815f3146103f95780639f92676c14610444578063b6101d101461049b578063c2a63e3b146104b2578063c7cb9732146104dd578063f7d616d21461054a575b600080fd5b3480156100e157600080fd5b50610116600480360381019080803573ffffffffffffffffffffffffffffffffffffffff16906020019092919050505061058b565b6040518082815260200191505060405180910390f35b34801561013857600080fd5b506101616004803603810190808035906020019092919080359060200190929190505050610622565b6040518082815260200191505060405180910390f35b34801561018357600080fd5b5061018c61066a565b005b34801561019a57600080fd5b506101a3610806565b6040518082815260200191505060405180910390f35b3480156101c557600080fd5b506101e460048036038101908080359060200190929190505050610813565b6040518082815260200191505060405180910390f35b34801561020657600080fd5b5061026b600480360381019080803590602001908201803590602001908080601f016020809104026020016040519081016040528093929190818152602001838380828437820191505050505050919291929080359060200190929190505050610845565b6040518080602001828103825283818151815260200191508051906020019080838360005b838110156102ab578082015181840152602081019050610290565b50505050905090810190601f1680156102d85780820380516001836020036101000a031916815260200191505b509250505060405180910390f35b3480156102f257600080fd5b506103116004803603810190808035906020019092919050505061087e565b604051808273ffffffffffffffffffffffffffffffffffffffff1673ffffffffffffffffffffffffffffffffffffffff16815260200191505060405180910390f35b34801561035f57600080fd5b5061037e600480360381019080803590602001909291905050506108d3565b6040518080602001828103825283818151815260200191508051906020019080838360005b838110156103be5780820151818401526020810190506103a3565b50505050905090810190601f1680156103eb5780820380516001836020036101000a031916815260200191505b509250505060405180910390f35b34801561040557600080fd5b5061042e600480360381019080803590602001909291908035906020019092919050505061098e565b6040518082815260200191505060405180910390f35b34801561045057600080fd5b50610485600480360381019080803573ffffffffffffffffffffffffffffffffffffffff1690602001909291905050506109d6565b6040518082815260200191505060405180910390f35b3480156104a757600080fd5b506104b0610a6d565b005b3480156104be57600080fd5b506104c7610c07565b6040518082815260200191505060405180910390f35b3480156104e957600080fd5b5061050860048036038101908080359060200190929190505050610c14565b604051808273ffffffffffffffffffffffffffffffffffffffff1673ffffffffffffffffffffffffffffffffffffffff16815260200191505060405180910390f35b34801561055657600080fd5b5061057560048036038101908080359060200190929190505050610c69565b6040518082815260200191505060405180910390f35b600080600160008473ffffffffffffffffffffffffffffffffffffffff1673ffffffffffffffffffffffffffffffffffffffff16815260200190815260200160002054141515156105db57600080fd5b600160008373ffffffffffffffffffffffffffffffffffffffff1673ffffffffffffffffffffffffffffffffffffffff168152602001908152602001600020549050919050565b600061062d83610813565b8210151561063a57600080fd5b60026000848152602001908152602001600020600401600083815260200190815260200160002054905092915050565b6000600460003373ffffffffffffffffffffffffffffffffffffffff1673ffffffffffffffffffffffffffffffffffffffff168152602001908152602001600020541415156106b857600080fd5b60606040519081016040528060408051908101604052803373ffffffffffffffffffffffffffffffffffffffff168152602001602060405190810160405280600081525081525081526020016003548152602001600081525060056000600354815260200190815260200160002060008201518160000160008201518160000160006101000a81548173ffffffffffffffffffffffffffffffffffffffff021916908373ffffffffffffffffffffffffffffffffffffffff1602179055506020820151816001019080519060200190610792929190610c9b565b5050506020820151816002015560408201518160030155905050600354600460003373ffffffffffffffffffffffffffffffffffffffff1673ffffffffffffffffffffffffffffffffffffffff16815260200190815260200160002081905550600360008154809291906001019190505550565b6000600160035403905090565b6000816000548110151561082657600080fd5b6002600084815260200190815260200160002060030154915050919050565b606082600560008481526020019081526020016000206000016001019080519060200190610874929190610d1b565b5082905092915050565b6000816000548110151561089157600080fd5b6002600084815260200190815260200160002060000160000160009054906101000a900473ffffffffffffffffffffffffffffffffffffffff16915050919050565b6060600560008381526020019081526020016000206000016001018054600181600116156101000203166002900480601f0160208091040260200160405190810160405280929190818152602001828054600181600116156101000203166002900480156109825780601f1061095757610100808354040283529160200191610982565b820191906000526020600020905b81548152906001019060200180831161096557829003601f168201915b50505050509050919050565b600061099983610c69565b821015156109a657600080fd5b60056000848152602001908152602001600020600401600083815260200190815260200160002054905092915050565b600080600460008473ffffffffffffffffffffffffffffffffffffffff1673ffffffffffffffffffffffffffffffffffffffff1681526020019081526020016000205414151515610a2657600080fd5b600460008373ffffffffffffffffffffffffffffffffffffffff1673ffffffffffffffffffffffffffffffffffffffff168152602001908152602001600020549050919050565b6000600160003373ffffffffffffffffffffffffffffffffffffffff1673ffffffffffffffffffffffffffffffffffffffff16815260200190815260200160002054141515610abb57600080fd5b60606040519081016040528060408051908101604052803373ffffffffffffffffffffffffffffffffffffffff1681526020016020604051908101604052806000815250815250815260200160005481526020016000815250600260008054815260200190815260200160002060008201518160000160008201518160000160006101000a81548173ffffffffffffffffffffffffffffffffffffffff021916908373ffffffffffffffffffffffffffffffffffffffff1602179055506020820151816001019080519060200190610b94929190610c9b565b5050506020820151816002015560408201518160030155905050600054600160003373ffffffffffffffffffffffffffffffffffffffff1673ffffffffffffffffffffffffffffffffffffffff168152602001908152602001600020819055506000808154809291906001019190505550565b6000600160005403905090565b60008160035481101515610c2757600080fd5b6005600084815260200190815260200160002060000160000160009054906101000a900473ffffffffffffffffffffffffffffffffffffffff16915050919050565b60008160035481101515610c7c57600080fd5b6005600084815260200190815260200160002060030154915050919050565b828054600181600116156101000203166002900490600052602060002090601f016020900481019282601f10610cdc57805160ff1916838001178555610d0a565b82800160010185558215610d0a579182015b82811115610d09578251825591602001919060010190610cee565b5b509050610d179190610d9b565b5090565b828054600181600116156101000203166002900490600052602060002090601f016020900481019282601f10610d5c57805160ff1916838001178555610d8a565b82800160010185558215610d8a579182015b82811115610d89578251825591602001919060010190610d6e565b5b509050610d979190610d9b565b5090565b610dbd91905b80821115610db9576000816000905550600101610da1565b5090565b905600a165627a7a72305820c5b62a8d964688316fc2e8f015e1af6b379150382a6b7371c051699ce4fb85b30029",
  "source": "pragma solidity ^0.4.23;\n\ncontract AccountSystem {\n\n    // struct OwnedIndex {\n    //     uint index;\n    //     bool active;\n    // }\n    struct Account {\n        address owner;\n        // uint orderCounter;\n        // mapping (uint => OwnedIndex) ownedResume;\n        // mapping (uint => uint) orders;\n        string intro;\n    }\n\n    struct Employer {\n        Account account;\n        uint empolyerId;\n        uint getResumeCounter;\n        // uint introIndex;\n        mapping (uint => uint) getResumes;\n    }\n\n    struct Employee {\n        Account account;\n        uint employeeId;\n        uint sendResumeCounter;\n        mapping (uint => uint) sendResumes;\n    }\n\n\n    uint internal employeeCounter = 1;\n    mapping (address => uint) internal employeeIndex;\n    mapping (uint => Employee) internal employees; \n\n    uint internal employerCounter = 1;\n    mapping (address => uint) internal employerIndex;\n    mapping (uint => Employer) internal employers;\n\n    \n    // mapping (address => string) internal intros;\n\n    function createEmployee() public {\n        require(employeeIndex[msg.sender] == 0);\n        employees[employeeCounter] = Employee(Account(msg.sender, \"\"), employeeCounter, 0);\n        employeeIndex[msg.sender] = employeeCounter;\n        employeeCounter++;\n    }\n\n    function createEmployer() public {\n        require(employerIndex[msg.sender] == 0);\n        employers[employerCounter] = Employer(Account(msg.sender, \"\"), employerCounter, 0);\n        employerIndex[msg.sender] = employerCounter;\n        // intros[introCounter] = \"\";\n        // introCounter++;\n        // intros[msg.sender] = \"123123\";\n        employerCounter++;\n    }\n\n    function getEmployeeCount() public view returns(uint) {\n        return employeeCounter - 1;\n    }\n\n    function getEmployerCount() public view returns(uint) {\n        return employerCounter - 1;\n    }\n\n    modifier validEmployee(uint index) {\n        require(index < employeeCounter);\n        _;\n    }\n\n    modifier validEmployer(uint index) {\n        require(index < employerCounter);\n        _;\n    }\n\n    function getEmployeeIndex(address owner) public view returns(uint) {\n        require(employeeIndex[owner] != 0);\n        return employeeIndex[owner];\n    }\n\n    function getEmployeeAddress(uint index) public view validEmployee(index) returns(address) {\n        return employees[index].account.owner;\n    }\n\n    function getEmployerIndex(address owner) public view returns(uint) {\n        require(employerIndex[owner] != 0);\n        return employerIndex[owner];\n    }\n\n    function getEmployerAddress(uint index) public view validEmployer(index) returns(address) {\n        return employers[index].account.owner;\n    }\n\n\n    function getEmployeeSendResumeCounter(uint index) public view validEmployee(index) returns(uint) {\n        return employees[index].sendResumeCounter;\n    }\n\n    function getEmployerGetResumeCounter(uint index) public view validEmployer(index) returns(uint) {\n        return employers[index].getResumeCounter;\n    }\n\n    function _getEmployeeAt(uint index) internal view validEmployee(index) returns(Employee) {\n        return employees[index];\n    }\n\n    function _getEmployerAt(uint index) internal view validEmployer(index) returns(Employer) {\n        return employers[index];\n    }\n\n    function getSendResumeAt(uint employee, uint index) public view returns(uint) {\n        require(index < getEmployeeSendResumeCounter(employee));\n        return employees[employee].sendResumes[index];\n    }\n\n    function getGetResumeAt(uint employer, uint index) public view returns(uint) {\n        require(index < getEmployerGetResumeCounter(employer));\n        return employers[employer].getResumes[index];\n    }\n\n    function setEmployerIntro(string intro, uint employer) public returns(string){\n        employers[employer].account.intro = intro;\n        return intro;\n        \n    }\n\n\n\n    function getEmployerIntro(uint employer) public view returns(string){\n        return employers[employer].account.intro;\n        \n    }\n\n\n}",
  "sourcePath": "/Users/wangjing/ethereum/Resume/contracts/AccountSystem.sol",
  "compiler": {
    "name": "solc",
    "version": "0.4.24+commit.e67f0147.Emscripten.clang"
  },
  "schemaVersion": "2.0.1",
  "updatedAt": "2018-12-31T09:18:41.201Z"
}