{
  "contractName": "ArticleSystem",
  "abi": [
    {
      "constant": true,
      "inputs": [
        {
          "name": "articleIndex",
          "type": "uint256"
        }
      ],
      "name": "getArticle",
      "outputs": [
        {
          "name": "",
          "type": "address"
        },
        {
          "name": "",
          "type": "string"
        }
      ],
      "payable": false,
      "stateMutability": "view",
      "type": "function"
    },
    {
      "constant": true,
      "inputs": [
        {
          "name": "articleIndex",
          "type": "uint256"
        },
        {
          "name": "article",
          "type": "string"
        },
        {
          "name": "length",
          "type": "uint256"
        }
      ],
      "name": "verifyArticle",
      "outputs": [
        {
          "name": "",
          "type": "bool"
        }
      ],
      "payable": false,
      "stateMutability": "view",
      "type": "function"
    }
  ],
  "bytecode": "0x60806040526000805534801561001457600080fd5b506104ad806100246000396000f30060806040526004361061004c576000357c0100000000000000000000000000000000000000000000000000000000900463ffffffff16806341fb33d314610051578063bd85d867146100e6575b600080fd5b34801561005d57600080fd5b506100cc60048036038101908080359060200190929190803590602001908201803590602001908080601f0160208091040260200160405190810160405280939291908181526020018383808284378201915050505050509192919290803590602001909291905050506101bf565b604051808215151515815260200191505060405180910390f35b3480156100f257600080fd5b5061011160048036038101908080359060200190929190505050610378565b604051808373ffffffffffffffffffffffffffffffffffffffff1673ffffffffffffffffffffffffffffffffffffffff16815260200180602001828103825283818151815260200191508051906020019080838360005b83811015610183578082015181840152602081019050610168565b50505050905090810190601f1680156101b05780820380516001836020036101000a031916815260200191505b50935050505060405180910390f35b60008054841015156101d057600080fd5b81600160008681526020019081526020016000206002016002015414801561036f5750826040516020018082805190602001908083835b60208310151561022c5780518252602082019150602081019050602083039250610207565b6001836020036101000a0380198251168184511680821785525050505050509050019150506040516020818303038152906040526040518082805190602001908083835b6020831015156102955780518252602082019150602081019050602083039250610270565b6001836020036101000a03801982511681845116808217855250505050505090500191505060405180910390206040516020018082600019166000191681526020019150506040516020818303038152906040526040518082805190602001908083835b60208310151561031e57805182526020820191506020810190506020830392506102f9565b6001836020036101000a038019825116818451168082178552505050505050905001915050604051809103902060001916600160008681526020019081526020016000206002016001015460001916145b90509392505050565b600060606000548310151561038c57600080fd5b6001600084815260200190815260200160002060000160009054906101000a900473ffffffffffffffffffffffffffffffffffffffff1660016000858152602001908152602001600020600201600001808054600181600116156101000203166002900480601f0160208091040260200160405190810160405280929190818152602001828054600181600116156101000203166002900480156104715780601f1061044657610100808354040283529160200191610471565b820191906000526020600020905b81548152906001019060200180831161045457829003601f168201915b50505050509050915091509150915600a165627a7a723058207e4e49295418c67177676bc7052d8405d3db5eaa641bb25b8ef65aea1985d3cc0029",
  "source": "pragma solidity ^0.4.17;\n\ncontract ArticleSystem {\n  struct Content {\n    string headContent;\n    bytes32 hashedContent;\n    uint length;\n  }\n\n  struct Article {\n    address writer;\n    address owner;\n    Content articleContent;\n  }\n\n  uint articleCounter = 0;\n  mapping (uint => Article) articles;\n\n  modifier validArticle(uint index) {\n    require(index < articleCounter);\n    _;\n  }\n\n  function _addArticle(address _writer, string headContent,\n    bytes32 hashedContent, uint length) internal returns(uint)\n  {\n      articles[articleCounter] = Article(_writer, _writer, \n        Content(headContent, keccak256(abi.encodePacked(hashedContent)), length));\n      return articleCounter++;\n  }\n\n  function getArticle(uint articleIndex) public view returns(address, string) {\n    require(articleIndex < articleCounter);\n    return (articles[articleIndex].writer, articles[articleIndex].articleContent.headContent);\n  }\n\n  function _changeOwner(uint articleIndex, address targetOwner) internal {\n    require(articleIndex < articleCounter);\n    require(articles[articleIndex].owner == msg.sender);\n    articles[articleIndex].owner = targetOwner;\n  }\n\n  function verifyArticle(uint articleIndex, string article, uint length) public view returns (bool) {\n    require(articleIndex < articleCounter);\n\n    return (articles[articleIndex].articleContent.length == length &&\n      articles[articleIndex].articleContent.hashedContent == keccak256(abi.encodePacked(keccak256(abi.encodePacked(article)))));\n  }\n}",
  "sourcePath": "/Users/wangjing/ethereum/Article.eth/contracts/ArticleSystem.sol",
  "compiler": {
    "name": "solc",
    "version": "0.4.24+commit.e67f0147.Emscripten.clang"
  },
  "schemaVersion": "2.0.1",
  "updatedAt": "2018-12-30T08:45:37.466Z"
}