{
  "contractName": "ControlBus",
  "abi": [
    {
      "constant": true,
      "inputs": [
        {
          "name": "owner",
          "type": "address"
        }
      ],
      "name": "getEmployeeIndex",
      "outputs": [
        {
          "name": "",
          "type": "uint256"
        }
      ],
      "payable": false,
      "stateMutability": "view",
      "type": "function"
    },
    {
      "constant": true,
      "inputs": [
        {
          "name": "employee",
          "type": "uint256"
        },
        {
          "name": "index",
          "type": "uint256"
        }
      ],
      "name": "getSendResumeAt",
      "outputs": [
        {
          "name": "",
          "type": "uint256"
        }
      ],
      "payable": false,
      "stateMutability": "view",
      "type": "function"
    },
    {
      "constant": false,
      "inputs": [],
      "name": "createEmployer",
      "outputs": [],
      "payable": false,
      "stateMutability": "nonpayable",
      "type": "function"
    },
    {
      "constant": true,
      "inputs": [],
      "name": "getEmployerCount",
      "outputs": [
        {
          "name": "",
          "type": "uint256"
        }
      ],
      "payable": false,
      "stateMutability": "view",
      "type": "function"
    },
    {
      "constant": true,
      "inputs": [
        {
          "name": "index",
          "type": "uint256"
        }
      ],
      "name": "getEmployeeSendResumeCounter",
      "outputs": [
        {
          "name": "",
          "type": "uint256"
        }
      ],
      "payable": false,
      "stateMutability": "view",
      "type": "function"
    },
    {
      "constant": false,
      "inputs": [
        {
          "name": "intro",
          "type": "string"
        },
        {
          "name": "employer",
          "type": "uint256"
        }
      ],
      "name": "setEmployerIntro",
      "outputs": [
        {
          "name": "",
          "type": "string"
        }
      ],
      "payable": false,
      "stateMutability": "nonpayable",
      "type": "function"
    },
    {
      "constant": true,
      "inputs": [
        {
          "name": "index",
          "type": "uint256"
        }
      ],
      "name": "getEmployeeAddress",
      "outputs": [
        {
          "name": "",
          "type": "address"
        }
      ],
      "payable": false,
      "stateMutability": "view",
      "type": "function"
    },
    {
      "constant": true,
      "inputs": [
        {
          "name": "resumeIndex",
          "type": "uint256"
        }
      ],
      "name": "getResumeOne",
      "outputs": [
        {
          "name": "",
          "type": "address"
        },
        {
          "name": "",
          "type": "address"
        },
        {
          "name": "",
          "type": "string"
        },
        {
          "name": "",
          "type": "string"
        }
      ],
      "payable": false,
      "stateMutability": "view",
      "type": "function"
    },
    {
      "constant": true,
      "inputs": [
        {
          "name": "employer",
          "type": "uint256"
        }
      ],
      "name": "getEmployerIntro",
      "outputs": [
        {
          "name": "",
          "type": "string"
        }
      ],
      "payable": false,
      "stateMutability": "view",
      "type": "function"
    },
    {
      "constant": true,
      "inputs": [
        {
          "name": "resumeIndex",
          "type": "uint256"
        }
      ],
      "name": "getResumeContent",
      "outputs": [
        {
          "name": "",
          "type": "string"
        }
      ],
      "payable": false,
      "stateMutability": "view",
      "type": "function"
    },
    {
      "constant": true,
      "inputs": [
        {
          "name": "employer",
          "type": "uint256"
        },
        {
          "name": "index",
          "type": "uint256"
        }
      ],
      "name": "getGetResumeAt",
      "outputs": [
        {
          "name": "",
          "type": "uint256"
        }
      ],
      "payable": false,
      "stateMutability": "view",
      "type": "function"
    },
    {
      "constant": true,
      "inputs": [
        {
          "name": "owner",
          "type": "address"
        }
      ],
      "name": "getEmployerIndex",
      "outputs": [
        {
          "name": "",
          "type": "uint256"
        }
      ],
      "payable": false,
      "stateMutability": "view",
      "type": "function"
    },
    {
      "constant": false,
      "inputs": [],
      "name": "createEmployee",
      "outputs": [],
      "payable": false,
      "stateMutability": "nonpayable",
      "type": "function"
    },
    {
      "constant": true,
      "inputs": [],
      "name": "getEmployeeCount",
      "outputs": [
        {
          "name": "",
          "type": "uint256"
        }
      ],
      "payable": false,
      "stateMutability": "view",
      "type": "function"
    },
    {
      "constant": true,
      "inputs": [
        {
          "name": "index",
          "type": "uint256"
        }
      ],
      "name": "getEmployerAddress",
      "outputs": [
        {
          "name": "",
          "type": "address"
        }
      ],
      "payable": false,
      "stateMutability": "view",
      "type": "function"
    },
    {
      "constant": true,
      "inputs": [
        {
          "name": "resumeIndex",
          "type": "uint256"
        }
      ],
      "name": "getResumeTitle",
      "outputs": [
        {
          "name": "",
          "type": "string"
        }
      ],
      "payable": false,
      "stateMutability": "view",
      "type": "function"
    },
    {
      "constant": true,
      "inputs": [
        {
          "name": "index",
          "type": "uint256"
        }
      ],
      "name": "getEmployerGetResumeCounter",
      "outputs": [
        {
          "name": "",
          "type": "uint256"
        }
      ],
      "payable": false,
      "stateMutability": "view",
      "type": "function"
    },
    {
      "constant": false,
      "inputs": [
        {
          "name": "mainTitle",
          "type": "string"
        },
        {
          "name": "mainContent",
          "type": "string"
        },
        {
          "name": "length",
          "type": "uint256"
        },
        {
          "name": "_employer",
          "type": "address"
        }
      ],
      "name": "sendResume",
      "outputs": [],
      "payable": false,
      "stateMutability": "nonpayable",
      "type": "function"
    }
  ],
  "bytecode": "0x608060405260016000556001600355600060065534801561001f57600080fd5b506117c18061002f6000396000f3006080604052600436106100fc576000357c0100000000000000000000000000000000000000000000000000000000900463ffffffff168063126d7b92146101015780631c8ffd111461015857806330242b76146101a357806353b2edef146101ba57806360b3990c146101e557806367d71929146102be5780636a6b30f7146102ff5780636e37b5a5146103eb5780638e9cc3a71461045857806395bd3405146105d05780639a5afd70146106765780639d0815f31461071c5780639f92676c14610767578063b6101d10146107be578063c2a63e3b146107d5578063c7cb973214610800578063d36fb0bc1461086d578063f7d616d214610913575b600080fd5b34801561010d57600080fd5b50610142600480360381019080803573ffffffffffffffffffffffffffffffffffffffff169060200190929190505050610954565b6040518082815260200191505060405180910390f35b34801561016457600080fd5b5061018d60048036038101908080359060200190929190803590602001909291905050506109eb565b6040518082815260200191505060405180910390f35b3480156101af57600080fd5b506101b8610a33565b005b3480156101c657600080fd5b506101cf610bcf565b6040518082815260200191505060405180910390f35b3480156101f157600080fd5b506102bc600480360381019080803590602001908201803590602001908080601f0160208091040260200160405190810160405280939291908181526020018383808284378201915050505050509192919290803590602001908201803590602001908080601f016020809104026020016040519081016040528093929190818152602001838380828437820191505050505050919291929080359060200190929190803573ffffffffffffffffffffffffffffffffffffffff169060200190929190505050610bdc565b005b3480156102ca57600080fd5b506102e960048036038101908080359060200190929190505050610cdf565b6040518082815260200191505060405180910390f35b34801561030b57600080fd5b50610370600480360381019080803590602001908201803590602001908080601f016020809104026020016040519081016040528093929190818152602001838380828437820191505050505050919291929080359060200190929190505050610d11565b6040518080602001828103825283818151815260200191508051906020019080838360005b838110156103b0578082015181840152602081019050610395565b50505050905090810190601f1680156103dd5780820380516001836020036101000a031916815260200191505b509250505060405180910390f35b3480156103f757600080fd5b5061041660048036038101908080359060200190929190505050610d4a565b604051808273ffffffffffffffffffffffffffffffffffffffff1673ffffffffffffffffffffffffffffffffffffffff16815260200191505060405180910390f35b34801561046457600080fd5b5061048360048036038101908080359060200190929190505050610d9f565b604051808573ffffffffffffffffffffffffffffffffffffffff1673ffffffffffffffffffffffffffffffffffffffff1681526020018473ffffffffffffffffffffffffffffffffffffffff1673ffffffffffffffffffffffffffffffffffffffff1681526020018060200180602001838103835285818151815260200191508051906020019080838360005b8381101561052b578082015181840152602081019050610510565b50505050905090810190601f1680156105585780820380516001836020036101000a031916815260200191505b50838103825284818151815260200191508051906020019080838360005b83811015610591578082015181840152602081019050610576565b50505050905090810190601f1680156105be5780820380516001836020036101000a031916815260200191505b50965050505050505060405180910390f35b3480156105dc57600080fd5b506105fb60048036038101908080359060200190929190505050610f9c565b6040518080602001828103825283818151815260200191508051906020019080838360005b8381101561063b578082015181840152602081019050610620565b50505050905090810190601f1680156106685780820380516001836020036101000a031916815260200191505b509250505060405180910390f35b34801561068257600080fd5b506106a160048036038101908080359060200190929190505050611057565b6040518080602001828103825283818151815260200191508051906020019080838360005b838110156106e15780820151818401526020810190506106c6565b50505050905090810190601f16801561070e5780820380516001836020036101000a031916815260200191505b509250505060405180910390f35b34801561072857600080fd5b506107516004803603810190808035906020019092919080359060200190929190505050611122565b6040518082815260200191505060405180910390f35b34801561077357600080fd5b506107a8600480360381019080803573ffffffffffffffffffffffffffffffffffffffff16906020019092919050505061116a565b6040518082815260200191505060405180910390f35b3480156107ca57600080fd5b506107d3611201565b005b3480156107e157600080fd5b506107ea61139b565b6040518082815260200191505060405180910390f35b34801561080c57600080fd5b5061082b600480360381019080803590602001909291905050506113a8565b604051808273ffffffffffffffffffffffffffffffffffffffff1673ffffffffffffffffffffffffffffffffffffffff16815260200191505060405180910390f35b34801561087957600080fd5b50610898600480360381019080803590602001909291905050506113fd565b6040518080602001828103825283818151815260200191508051906020019080838360005b838110156108d85780820151818401526020810190506108bd565b50505050905090810190601f1680156109055780820380516001836020036101000a031916815260200191505b509250505060405180910390f35b34801561091f57600080fd5b5061093e600480360381019080803590602001909291905050506114c8565b6040518082815260200191505060405180910390f35b600080600160008473ffffffffffffffffffffffffffffffffffffffff1673ffffffffffffffffffffffffffffffffffffffff16815260200190815260200160002054141515156109a457600080fd5b600160008373ffffffffffffffffffffffffffffffffffffffff1673ffffffffffffffffffffffffffffffffffffffff168152602001908152602001600020549050919050565b60006109f683610cdf565b82101515610a0357600080fd5b60026000848152602001908152602001600020600401600083815260200190815260200160002054905092915050565b6000600460003373ffffffffffffffffffffffffffffffffffffffff1673ffffffffffffffffffffffffffffffffffffffff16815260200190815260200160002054141515610a8157600080fd5b60606040519081016040528060408051908101604052803373ffffffffffffffffffffffffffffffffffffffff168152602001602060405190810160405280600081525081525081526020016003548152602001600081525060056000600354815260200190815260200160002060008201518160000160008201518160000160006101000a81548173ffffffffffffffffffffffffffffffffffffffff021916908373ffffffffffffffffffffffffffffffffffffffff1602179055506020820151816001019080519060200190610b5b929190611670565b5050506020820151816002015560408201518160030155905050600354600460003373ffffffffffffffffffffffffffffffffffffffff1673ffffffffffffffffffffffffffffffffffffffff16815260200190815260200160002081905550600360008154809291906001019190505550565b6000600160035403905090565b6000806000610bea33610954565b9250610bf58461116a565b9150610c0433858989896114fa565b90508060026000858152602001908152602001600020600401600060026000878152602001908152602001600020600301548152602001908152602001600020819055508060056000848152602001908152602001600020600401600060056000868152602001908152602001600020600301548152602001908152602001600020819055506002600084815260200190815260200160002060030160008154809291906001019190505550600560008381526020019081526020016000206003016000815480929190600101919050555050505050505050565b60008160005481101515610cf257600080fd5b6002600084815260200190815260200160002060030154915050919050565b606082600560008481526020019081526020016000206000016001019080519060200190610d409291906116f0565b5082905092915050565b60008160005481101515610d5d57600080fd5b6002600084815260200190815260200160002060000160000160009054906101000a900473ffffffffffffffffffffffffffffffffffffffff16915050919050565b60008060608060065485101515610db557600080fd5b6007600086815260200190815260200160002060000160009054906101000a900473ffffffffffffffffffffffffffffffffffffffff166007600087815260200190815260200160002060010160009054906101000a900473ffffffffffffffffffffffffffffffffffffffff166007600088815260200190815260200160002060020160000160076000898152602001908152602001600020600201600101818054600181600116156101000203166002900480601f016020809104026020016040519081016040528092919081815260200182805460018160011615610100020316600290048015610eea5780601f10610ebf57610100808354040283529160200191610eea565b820191906000526020600020905b815481529060010190602001808311610ecd57829003601f168201915b50505050509150808054600181600116156101000203166002900480601f016020809104026020016040519081016040528092919081815260200182805460018160011615610100020316600290048015610f865780601f10610f5b57610100808354040283529160200191610f86565b820191906000526020600020905b815481529060010190602001808311610f6957829003601f168201915b5050505050905093509350935093509193509193565b6060600560008381526020019081526020016000206000016001018054600181600116156101000203166002900480601f01602080910402602001604051908101604052809291908181526020018280546001816001161561010002031660029004801561104b5780601f106110205761010080835404028352916020019161104b565b820191906000526020600020905b81548152906001019060200180831161102e57829003601f168201915b50505050509050919050565b60606006548210151561106957600080fd5b600760008381526020019081526020016000206002016001018054600181600116156101000203166002900480601f0160208091040260200160405190810160405280929190818152602001828054600181600116156101000203166002900480156111165780601f106110eb57610100808354040283529160200191611116565b820191906000526020600020905b8154815290600101906020018083116110f957829003601f168201915b50505050509050919050565b600061112d836114c8565b8210151561113a57600080fd5b60056000848152602001908152602001600020600401600083815260200190815260200160002054905092915050565b600080600460008473ffffffffffffffffffffffffffffffffffffffff1673ffffffffffffffffffffffffffffffffffffffff16815260200190815260200160002054141515156111ba57600080fd5b600460008373ffffffffffffffffffffffffffffffffffffffff1673ffffffffffffffffffffffffffffffffffffffff168152602001908152602001600020549050919050565b6000600160003373ffffffffffffffffffffffffffffffffffffffff1673ffffffffffffffffffffffffffffffffffffffff1681526020019081526020016000205414151561124f57600080fd5b60606040519081016040528060408051908101604052803373ffffffffffffffffffffffffffffffffffffffff1681526020016020604051908101604052806000815250815250815260200160005481526020016000815250600260008054815260200190815260200160002060008201518160000160008201518160000160006101000a81548173ffffffffffffffffffffffffffffffffffffffff021916908373ffffffffffffffffffffffffffffffffffffffff1602179055506020820151816001019080519060200190611328929190611670565b5050506020820151816002015560408201518160030155905050600054600160003373ffffffffffffffffffffffffffffffffffffffff1673ffffffffffffffffffffffffffffffffffffffff168152602001908152602001600020819055506000808154809291906001019190505550565b6000600160005403905090565b600081600354811015156113bb57600080fd5b6005600084815260200190815260200160002060000160000160009054906101000a900473ffffffffffffffffffffffffffffffffffffffff16915050919050565b60606006548210151561140f57600080fd5b600760008381526020019081526020016000206002016000018054600181600116156101000203166002900480601f0160208091040260200160405190810160405280929190818152602001828054600181600116156101000203166002900480156114bc5780601f10611491576101008083540402835291602001916114bc565b820191906000526020600020905b81548152906001019060200180831161149f57829003601f168201915b50505050509050919050565b600081600354811015156114db57600080fd5b6005600084815260200190815260200160002060030154915050919050565b60006060604051908101604052808773ffffffffffffffffffffffffffffffffffffffff1681526020018673ffffffffffffffffffffffffffffffffffffffff1681526020016060604051908101604052808781526020018681526020018581525081525060076000600654815260200190815260200160002060008201518160000160006101000a81548173ffffffffffffffffffffffffffffffffffffffff021916908373ffffffffffffffffffffffffffffffffffffffff16021790555060208201518160010160006101000a81548173ffffffffffffffffffffffffffffffffffffffff021916908373ffffffffffffffffffffffffffffffffffffffff1602179055506040820151816002016000820151816000019080519060200190611627929190611670565b506020820151816001019080519060200190611644929190611670565b506040820151816002015550509050506006600081548092919060010191905055905095945050505050565b828054600181600116156101000203166002900490600052602060002090601f016020900481019282601f106116b157805160ff19168380011785556116df565b828001600101855582156116df579182015b828111156116de5782518255916020019190600101906116c3565b5b5090506116ec9190611770565b5090565b828054600181600116156101000203166002900490600052602060002090601f016020900481019282601f1061173157805160ff191683800117855561175f565b8280016001018555821561175f579182015b8281111561175e578251825591602001919060010190611743565b5b50905061176c9190611770565b5090565b61179291905b8082111561178e576000816000905550600101611776565b5090565b905600a165627a7a723058208f8316c8da29db5c4b59f18c7f4f03b9dd7cd19e59f573656c8995a10199b7d00029",
  "source": "pragma solidity ^0.4.23;\nimport \"./ResumeSystem.sol\";\nimport \"./AccountSystem.sol\";\n\ncontract ControlBus is AccountSystem, ResumeSystem {\n\n    function sendResume(string mainTitle, string mainContent, uint length, address _employer) public {\n        uint employeeIndex = getEmployeeIndex(msg.sender);\n        uint employerIndex = getEmployerIndex(_employer);\n\n        uint resumeIndex = _addResume(msg.sender, _employer, mainTitle, mainContent, length);\n\n        employees[employeeIndex].sendResumes[employees[employeeIndex].sendResumeCounter] = resumeIndex;\n        employers[employerIndex].getResumes[employers[employerIndex].getResumeCounter] = resumeIndex;\n\n        // _addWriterOwnedArticle(writerIndex, articleIndex);\n        employees[employeeIndex].sendResumeCounter++;\n        employers[employerIndex].getResumeCounter++;\n        \n    }\n\n    // function _addWriterOwnedArticle(uint writerIndex, uint articleIndex) internal validWriter(writerIndex) validArticle(articleIndex) {\n    //     writers[writerIndex].account.ownedArticles[writers[writerIndex].account.articleCounter] = OwnedIndex(articleIndex, true);\n    //     writers[writerIndex].account.articleCounter++;\n    // }\n\n}",
  "sourcePath": "/Users/wangjing/ethereum/Resume/contracts/ControlBus.sol",
  "compiler": {
    "name": "solc",
    "version": "0.4.24+commit.e67f0147.Emscripten.clang"
  },
  "schemaVersion": "2.0.1",
  "updatedAt": "2018-12-31T09:25:06.072Z"
}