{
  "contractName": "MailSystem",
  "abi": [
    {
      "constant": true,
      "inputs": [
        {
          "name": "index",
          "type": "uint256"
        }
      ],
      "name": "getMailContentByIndex",
      "outputs": [
        {
          "name": "",
          "type": "string"
        }
      ],
      "payable": false,
      "stateMutability": "view",
      "type": "function"
    },
    {
      "constant": true,
      "inputs": [
        {
          "name": "index",
          "type": "uint256"
        }
      ],
      "name": "getMail",
      "outputs": [
        {
          "name": "",
          "type": "address"
        },
        {
          "name": "",
          "type": "address"
        },
        {
          "name": "",
          "type": "string"
        }
      ],
      "payable": false,
      "stateMutability": "view",
      "type": "function"
    }
  ],
  "bytecode": "0x60806040526000805534801561001457600080fd5b506105f1806100246000396000f30060806040526004361061004c576000357c0100000000000000000000000000000000000000000000000000000000900463ffffffff168063dcc5330514610051578063f429e57f1461015d575b600080fd5b34801561005d57600080fd5b5061007c60048036038101908080359060200190929190505050610203565b604051808473ffffffffffffffffffffffffffffffffffffffff1673ffffffffffffffffffffffffffffffffffffffff1681526020018373ffffffffffffffffffffffffffffffffffffffff1673ffffffffffffffffffffffffffffffffffffffff16815260200180602001828103825283818151815260200191508051906020019080838360005b83811015610120578082015181840152602081019050610105565b50505050905090810190601f16801561014d5780820380516001836020036101000a031916815260200191505b5094505050505060405180910390f35b34801561016957600080fd5b5061018860048036038101908080359060200190929190505050610421565b6040518080602001828103825283818151815260200191508051906020019080838360005b838110156101c85780820151818401526020810190506101ad565b50505050905090810190601f1680156101f55780820380516001836020036101000a031916815260200191505b509250505060405180910390f35b60008060606000548410151561021857600080fd5b3373ffffffffffffffffffffffffffffffffffffffff166001600086815260200190815260200160002060010160009054906101000a900473ffffffffffffffffffffffffffffffffffffffff1673ffffffffffffffffffffffffffffffffffffffff1614806102e957503373ffffffffffffffffffffffffffffffffffffffff166001600086815260200190815260200160002060000160009054906101000a900473ffffffffffffffffffffffffffffffffffffffff1673ffffffffffffffffffffffffffffffffffffffff16145b15156102f457600080fd5b6001600085815260200190815260200160002060000160009054906101000a900473ffffffffffffffffffffffffffffffffffffffff166001600086815260200190815260200160002060010160009054906101000a900473ffffffffffffffffffffffffffffffffffffffff1660016000878152602001908152602001600020600201808054600181600116156101000203166002900480601f01602080910402602001604051908101604052809291908181526020018280546001816001161561010002031660029004801561040d5780601f106103e25761010080835404028352916020019161040d565b820191906000526020600020905b8154815290600101906020018083116103f057829003601f168201915b505050505090509250925092509193909250565b60606000548210151561043357600080fd5b3373ffffffffffffffffffffffffffffffffffffffff166001600084815260200190815260200160002060010160009054906101000a900473ffffffffffffffffffffffffffffffffffffffff1673ffffffffffffffffffffffffffffffffffffffff16148061050457503373ffffffffffffffffffffffffffffffffffffffff166001600084815260200190815260200160002060000160009054906101000a900473ffffffffffffffffffffffffffffffffffffffff1673ffffffffffffffffffffffffffffffffffffffff16145b151561050f57600080fd5b600160008381526020019081526020016000206002018054600181600116156101000203166002900480601f0160208091040260200160405190810160405280929190818152602001828054600181600116156101000203166002900480156105b95780601f1061058e576101008083540402835291602001916105b9565b820191906000526020600020905b81548152906001019060200180831161059c57829003601f168201915b505050505090509190505600a165627a7a72305820c992f79b02c0e69cf588451c76b29fcae0c896b942082ddabb5eea9ccbdab6a10029",
  "source": "pragma solidity ^0.4.17;\n\ncontract MailSystem {\n  struct Mail {\n    address sender;\n    address receiver;\n    string content;\n  }\n\n  uint internal mailCounter = 0;\n  mapping (uint => Mail) internal mails;\n\n  function _sendMail(address receiver, string content) internal returns(uint) {\n    mails[mailCounter] = Mail(msg.sender, receiver, content);\n    return mailCounter++;\n  }\n\n  function getMailContentByIndex(uint index) public view returns(string) {\n    require(index < mailCounter);\n    require(mails[index].receiver == msg.sender || mails[index].sender == msg.sender);\n    return mails[index].content;\n  }\n\n  function getMail(uint index) public view returns(address, address, string) {\n    require(index < mailCounter);\n    require(mails[index].receiver == msg.sender || mails[index].sender == msg.sender);\n    return (mails[index].sender, mails[index].receiver, mails[index].content);\n  }\n}",
  "sourcePath": "/Users/wangjing/ethereum/Article.eth/contracts/MailSystem.sol",
  "compiler": {
    "name": "solc",
    "version": "0.4.24+commit.e67f0147.Emscripten.clang"
  },
  "schemaVersion": "2.0.1",
  "updatedAt": "2018-12-30T08:45:37.471Z"
}