{
  "contractName": "OrderSystem",
  "abi": [
    {
      "constant": true,
      "inputs": [
        {
          "name": "index",
          "type": "uint256"
        }
      ],
      "name": "getOrder",
      "outputs": [
        {
          "name": "",
          "type": "address"
        },
        {
          "name": "",
          "type": "address"
        },
        {
          "name": "",
          "type": "uint256"
        },
        {
          "name": "",
          "type": "bool"
        }
      ],
      "payable": false,
      "stateMutability": "view",
      "type": "function"
    }
  ],
  "bytecode": "0x60806040526000805534801561001457600080fd5b5061020a806100246000396000f300608060405260043610610041576000357c0100000000000000000000000000000000000000000000000000000000900463ffffffff168063d09ef24114610046575b600080fd5b34801561005257600080fd5b50610071600480360381019080803590602001909291905050506100f8565b604051808573ffffffffffffffffffffffffffffffffffffffff1673ffffffffffffffffffffffffffffffffffffffff1681526020018473ffffffffffffffffffffffffffffffffffffffff1673ffffffffffffffffffffffffffffffffffffffff1681526020018381526020018215151515815260200194505050505060405180910390f35b6000806000806000548510151561010e57600080fd5b6001600086815260200190815260200160002060000160009054906101000a900473ffffffffffffffffffffffffffffffffffffffff166001600087815260200190815260200160002060010160009054906101000a900473ffffffffffffffffffffffffffffffffffffffff16600160008881526020019081526020016000206002015460018081111561019f57fe5b600160008a815260200190815260200160002060030160009054906101000a900460ff1660018111156101ce57fe5b14935093509350935091935091935600a165627a7a723058204c146c0453914f4658b061eb9cd65696ba2c1a106db0b5668a1503228c91a6a60029",
  "source": "pragma solidity ^0.4.17;\n\ncontract OrderSystem {\n  enum State {unfinished, finished}\n\n  struct Order {\n    address seller;\n    address buyer;\n    uint price;\n    State state;\n  }\n\n  uint internal orderCounter = 0;\n  mapping (uint => Order) internal orders;\n\n  function _createOrder(address writer, uint price) internal returns(uint) {\n    orders[orderCounter] = Order(writer, msg.sender, price, State.unfinished);\n    return orderCounter++;\n  }\n\n  function _finishOrder(uint index) internal {\n    require(index < orderCounter);\n    require(orders[index].seller == msg.sender);\n    require(orders[index].state == State.unfinished);\n    msg.sender.transfer(orders[index].price);\n    orders[index].state = State.finished;\n  }\n\n  function _getOrder(uint index) internal view returns(Order storage) {\n    require(index < orderCounter);\n    return orders[index];\n  }\n\n  function getOrder(uint index) public view returns(address, address, uint, bool) {\n    require(index < orderCounter);\n    return (orders[index].seller, orders[index].buyer, orders[index].price, orders[index].state == State.finished);\n  }\n}",
  "sourcePath": "/Users/wangjing/ethereum/Article.eth/contracts/OrderSystem.sol",
  "compiler": {
    "name": "solc",
    "version": "0.4.24+commit.e67f0147.Emscripten.clang"
  },
  "schemaVersion": "2.0.1",
  "updatedAt": "2018-12-30T08:45:37.472Z"
}