{
  "contractName": "ResumeSystem",
  "abi": [
    {
      "constant": true,
      "inputs": [
        {
          "name": "resumeIndex",
          "type": "uint256"
        }
      ],
      "name": "getResumeTitle",
      "outputs": [
        {
          "name": "",
          "type": "string"
        }
      ],
      "payable": false,
      "stateMutability": "view",
      "type": "function"
    },
    {
      "constant": true,
      "inputs": [
        {
          "name": "resumeIndex",
          "type": "uint256"
        }
      ],
      "name": "getResumeContent",
      "outputs": [
        {
          "name": "",
          "type": "string"
        }
      ],
      "payable": false,
      "stateMutability": "view",
      "type": "function"
    },
    {
      "constant": true,
      "inputs": [
        {
          "name": "resumeIndex",
          "type": "uint256"
        }
      ],
      "name": "getResumeOne",
      "outputs": [
        {
          "name": "",
          "type": "address"
        },
        {
          "name": "",
          "type": "address"
        },
        {
          "name": "",
          "type": "string"
        },
        {
          "name": "",
          "type": "string"
        }
      ],
      "payable": false,
      "stateMutability": "view",
      "type": "function"
    }
  ],
  "bytecode": "0x60806040526000805534801561001457600080fd5b506106df806100246000396000f300608060405260043610610057576000357c0100000000000000000000000000000000000000000000000000000000900463ffffffff1680638e9cc3a71461005c5780639a5afd70146101d4578063d36fb0bc1461027a575b600080fd5b34801561006857600080fd5b5061008760048036038101908080359060200190929190505050610320565b604051808573ffffffffffffffffffffffffffffffffffffffff1673ffffffffffffffffffffffffffffffffffffffff1681526020018473ffffffffffffffffffffffffffffffffffffffff1673ffffffffffffffffffffffffffffffffffffffff1681526020018060200180602001838103835285818151815260200191508051906020019080838360005b8381101561012f578082015181840152602081019050610114565b50505050905090810190601f16801561015c5780820380516001836020036101000a031916815260200191505b50838103825284818151815260200191508051906020019080838360005b8381101561019557808201518184015260208101905061017a565b50505050905090810190601f1680156101c25780820380516001836020036101000a031916815260200191505b50965050505050505060405180910390f35b3480156101e057600080fd5b506101ff6004803603810190808035906020019092919050505061051d565b6040518080602001828103825283818151815260200191508051906020019080838360005b8381101561023f578082015181840152602081019050610224565b50505050905090810190601f16801561026c5780820380516001836020036101000a031916815260200191505b509250505060405180910390f35b34801561028657600080fd5b506102a5600480360381019080803590602001909291905050506105e8565b6040518080602001828103825283818151815260200191508051906020019080838360005b838110156102e55780820151818401526020810190506102ca565b50505050905090810190601f1680156103125780820380516001836020036101000a031916815260200191505b509250505060405180910390f35b6000806060806000548510151561033657600080fd5b6001600086815260200190815260200160002060000160009054906101000a900473ffffffffffffffffffffffffffffffffffffffff166001600087815260200190815260200160002060010160009054906101000a900473ffffffffffffffffffffffffffffffffffffffff166001600088815260200190815260200160002060020160000160016000898152602001908152602001600020600201600101818054600181600116156101000203166002900480601f01602080910402602001604051908101604052809291908181526020018280546001816001161561010002031660029004801561046b5780601f106104405761010080835404028352916020019161046b565b820191906000526020600020905b81548152906001019060200180831161044e57829003601f168201915b50505050509150808054600181600116156101000203166002900480601f0160208091040260200160405190810160405280929190818152602001828054600181600116156101000203166002900480156105075780601f106104dc57610100808354040283529160200191610507565b820191906000526020600020905b8154815290600101906020018083116104ea57829003601f168201915b5050505050905093509350935093509193509193565b60606000548210151561052f57600080fd5b600160008381526020019081526020016000206002016001018054600181600116156101000203166002900480601f0160208091040260200160405190810160405280929190818152602001828054600181600116156101000203166002900480156105dc5780601f106105b1576101008083540402835291602001916105dc565b820191906000526020600020905b8154815290600101906020018083116105bf57829003601f168201915b50505050509050919050565b6060600054821015156105fa57600080fd5b600160008381526020019081526020016000206002016000018054600181600116156101000203166002900480601f0160208091040260200160405190810160405280929190818152602001828054600181600116156101000203166002900480156106a75780601f1061067c576101008083540402835291602001916106a7565b820191906000526020600020905b81548152906001019060200180831161068a57829003601f168201915b505050505090509190505600a165627a7a72305820efd854025a681a136bfb1a0aa2eb0c7242b11131ffb074d9245dffef97502a060029",
  "source": "pragma solidity ^0.4.23;\n\ncontract ResumeSystem {\n    struct Content {\n        string mainTitle;\n        string mainContent;\n        uint length;\n    }\n\n    struct Resume {\n        address employee;\n        address employer;\n        Content resumeContent;\n    }\n\n    uint resumeCounter = 0;\n    mapping (uint => Resume) resumes;\n\n    modifier validResume(uint index) {\n        require(index < resumeCounter);\n        _;\n    }\n\n    function _addResume(address _employee, address _employer, string mainTitle, string mainContent, uint length) internal returns(uint)\n    {\n        resumes[resumeCounter] = Resume(_employee, _employer, Content(mainTitle, mainContent, length));\n        return resumeCounter++;\n    }\n\n    function getResumeTitle(uint resumeIndex) public view returns(string) {\n        require(resumeIndex < resumeCounter);\n        return resumes[resumeIndex].resumeContent.mainTitle;\n    }\n\n    function getResumeContent(uint resumeIndex) public view returns(string) {\n        require(resumeIndex < resumeCounter);\n        return resumes[resumeIndex].resumeContent.mainContent;\n    }\n\n    function getResumeOne(uint resumeIndex) public view returns(address, address, string, string) {\n        require(resumeIndex < resumeCounter);\n        return (resumes[resumeIndex].employee, resumes[resumeIndex].employer, resumes[resumeIndex].resumeContent.mainTitle, resumes[resumeIndex].resumeContent.mainContent);\n    }\n\n\n    // function verifyResume(uint resumeIndex, string resume, uint length) public view returns (bool) {\n    //     require(resumeIndex < resumeCounter);\n    //     return (resumes[resumeIndex].resumeContent.length == length && resumes[resumeIndex].resumeContent.hashedContent == keccak256(abi.encodePacked(keccak256(abi.encodePacked(resume)))));\n    // }\n\n    // function _changeOwner(uint resumIndex, address targetOwner) internal {\n    //     require(resumIndex < resumeCounter);\n    //     require(resumes[resumIndex].owner == msg.sender);\n    //     resumes[resumIndex].owner = targetOwner;\n    // }\n\n    \n}",
  "sourcePath": "/Users/wangjing/ethereum/Resume/contracts/ResumeSystem.sol",
  "compiler": {
    "name": "solc",
    "version": "0.4.24+commit.e67f0147.Emscripten.clang"
  },
  "schemaVersion": "2.0.1",
  "updatedAt": "2018-12-31T09:18:41.181Z"
}